:020000040800F2
:1000000000000220B9020008BF020008C302000875
:100010000D03000811030008590300080000000048
:10002000000000000000000000000000A103000824
:10003000A503000800000000A9030008693C0008AF
:10004000BD030008BD030008BD030008BD03000890
:10005000BD030008BD0300086D4600087746000890
:10006000814600088B460008BD030008BD03000858
:10007000BD030008BD030008154A0008BD030008C1
:10008000F5490008BD030008BD030008BD030008D2
:10009000BD030008BD030008BD030008BD03000840
:1000A000BD030008BD030008BD030008BD03000830
:1000B000BD03000881480008BD030008BD03000817
:1000C000BD030008BD030008BD030008BD03000810
:1000D000BD030008BD030008BD030008BD03000800
:1000E000BD030008BD030008BD030008BD030008F0
:1000F000BD030008BD030008BD030008054A000851
:10010000BD030008BD030008BD030008BD030008CF
:10011000BD030008BD030008BD030008BD030008BF
:1001200061490008BD030008BD030008BD030008C5
:10013000BD030008BD030008BD030008BD0300089F
:10014000BD030008BD030008BD030008BD0300088F
:10015000BD030008BD030008BD030008BD0300087F
:10016000BD030008BD030008BD030008BD0300086F
:10017000BD030008BD030008BD0300080000000027
:10018000BD030008BD03000800B583B003F05AF8B2
:10019000384B394A1360394A1360394906E011680F
:1001A0001960043304329842F9D82146354B9942FC
:1001B00005D20A684B6801F10C048868F3E72E4BFE
:1001C0001A68314B9A4200D0FEE72C4B1A682F4B2D
:1001D0009A42F9D1274B2E4A13602E4A13602E4BB8
:1001E00005E00020106004329342FAD80B462B4AF7
:1001F000934204D2194651F8082B5B68F4E7244B6C
:100200001B6813B9234B1B6803B1FEE703F080FDA5
:10021000694601A802F0A0FF214B224CE41AA41069
:100220000025AC4214DC204B204CE41AA41000251D
:10023000AC4213DC0099019804F07EF905461C4B92
:100240001C4CE41AA410002C0EDC284602F056FFC9
:10025000134B53F8253098470135E2E7124B53F81A
:10026000253098470135E3E7013C114B53F8243022
:100270009847E8E7BABADECA00000020ACC0002008
:10028000C0030008D8030008785634123254769818
:10029000B0C000200C680120D8030008E803000863
:1002A000E8030008E8030008E8030008E803000882
:1002B000E8030008E803000808B5FFF765FF00BE83
:1002C000FEE71EF0040F0CBFEFF30880EFF3098088
:1002D0007146374A10472DE9F04182B004468846FE
:1002E000084B5E6B9F6B9D6A074802F047FFCDF895
:1002F00000803B4632462946204602F0B5FF00BE4C
:10030000FEE700BF00ED00E06857000800BEFEE712
:100310001EF0040F0CBFEFF30880EFF30980714665
:10032000244A10472DE9F04182B004468846084B24
:100330005E6B9F6B9D6A074802F020FFCDF800803E
:100340003B4632462946204602F08EFF00BEFEE7BD
:1003500000ED00E0785700081EF0040F0CBFEFF32B
:100360000880EFF309807146134A10472DE9F041E8
:1003700082B004468846084B5E6B9F6B9D6A0748B7
:1003800002F0FCFECDF800803B463246294620466E
:1003900002F06AFF00BEFEE700ED00E084570008AF
:1003A00000BEFEE700BEFEE700BEFEE770470000AD
:1003B000D7020008250300086D03000800BEFEE711
:1003C0003858000800000020B0C00020385800084D
:1003D0000000001000000010B0C0002010680120D4
:0803E0000000001000000010F5
:1003F00010B5044602F040FB064BA3FB0030800919
:1004000000F036FC002221464FF0FF3000F0D6FB12
:10041000002010BDD34D621008B50B4B1A6842F492
:1004200000721A601A6842F480621A601A6842F414
:1004300080721A60032000F0A3FB0F20FFF7D8FFA3
:1004400004F005FB002008BD003C0240024A13688E
:1004500001331360704700BF40C20020014B186891
:10046000704700BF40C2002010B582B00190FFF776
:10047000F5FF0446FFF7F2FF001B019B9842F9D3FA
:1004800002B010BD10B50446514B5A6822F44032F8
:100490005A605A6841680A435A600268536823F4F4
:1004A0008073536002685368016943EA0123536013
:1004B0000268536823F04073536002685368816890
:1004C0000B4353600268936823F4006393600268EF
:1004D0009368C1680B439360826A3E4B9A425FD037
:1004E0000268936823F07063936002689368816A7E
:1004F0000B4393600268936823F040539360026853
:100500009368C16A0B4393602268936823F00203E7
:10051000936022689368A16943EA41039360236A68
:10052000002B4ED0636A013B072B44D822685368E6
:1005300043F4006353602268536823F460435360BC
:10054000636A013B4FF4604292FAA2F2B2FA82F27D
:100550009340226851680B4353602268D36A23F4A6
:100560007003D3622168CB6AE269013A43EA02531D
:10057000CB622268936823F40073936022689368C7
:10058000216B43EA412393602268936823F48063DC
:10059000936022689368616943EA8123936010BD88
:1005A0000268936823F0706393600268936823F095
:1005B00040539360A8E740F20461074802F0D4FD7D
:1005C000B4E72268536823F400635360C5E700BFB3
:1005D000002301400100000F38540008002800F0FB
:1005E000E18010B5044603686F4A93420CD002F5CF
:1005F0008072934208D002F58072934204D040F298
:100600000D116A4802F0B0FD63686BB1B3F5803F2D
:100610000AD0B3F5003F07D0B3F5403F04D04FF404
:100620008771624802F0A0FDA3686BB1B3F1807FCF
:100630000AD0B3F1007F07D0B3F1407F04D040F27D
:100640000F115A4802F090FD2369012B04D94FF491
:100650008871564802F088FDA369012B04D940F245
:100660001111524802F080FDA36AA3B3B3F1807F59
:1006700031D0B3F1007F2ED0B3F1407F2BD0B3F156
:10068000806F28D0B3F1A06F25D0B3F1C06F22D016
:10069000B3F1E06F1FD0B3F1006F1CD0B3F1106F56
:1006A00019D0B3F1206F16D0B3F1306F13D0B3F17E
:1006B000406F10D0B3F1506F0DD0B3F1606F0AD01E
:1006C000B3F1706F07D03A4A934204D04FF4897166
:1006D000364802F049FDE3683BB1B3F5006F04D042
:1006E00040F21311314802F03FFDE369013B0F2B4B
:1006F00031D8236B012B04D940F215112B4802F09D
:1007000033FD6369022B2CD8236A012B04D940F2F4
:100710001711264802F028FDA26A254B9A420FD0F5
:10072000E36A6BB1B3F1805F0AD0B3F1005F07D029
:10073000B3F1405F04D040F21B111C4802F014FDDD
:10074000236CA3B1236C13F0100F17D001200023EA
:1007500084F83C3010BD4FF48A71144802F004FD57
:10076000C7E74FF48B71114802F0FEFCCCE76364DD
:1007700084F83C30204604F06BF9E3E7236C23F463
:10078000885323F0020343F0020323642046FFF75B
:1007900079FE00206064236C23F0030343F001031F
:1007A0002364D4E70120704700200140385400083A
:1007B0000100000F70B582B004460D4616460023B6
:1007C00001938369012B04D940F2FA314F4802F0BA
:1007D000CBFCE36A6BB1B3F1805F0AD0B3F1005F89
:1007E00007D0B3F1405F04D040F2FB31474802F03C
:1007F000BBFC94F83C30012B7ED0012384F83C30C4
:1008000023689A6812F0010F13D19A6842F001022E
:100810009A603F4B1B683F4AA2FB03239B0C03EBF0
:100820004303019302E0019B013B0193019B002BD9
:10083000F9D12268936813F0010F60D0236C23F480
:10084000E06323F0010343F480732364536813F4DB
:10085000806F05D0236C23F4405343F4805323640A
:10086000236C13F4805F34D0636C23F0060363645D
:10087000002384F83C30A36B274ADA63A36B274A32
:100880001A64A36B264A9A6423686FF002021A6006
:100890002268536843F0806353602268936843F48E
:1008A00080739360216833462A464C31A06B00F078
:1008B0008BFB1C4B5B6813F01F0F0DD123689A68EC
:1008C00012F0405F1DD19A6842F080429A60002089
:1008D00013E000236364CBE72368134A934201D0FB
:1008E00000200AE09A6812F0405F0CD19A6842F04A
:1008F00080429A60002000E0022002B070BD00201B
:10090000FBE70020F9E70020F7E700BF38540008B4
:100910000C00002083DE1B432D090008910900080C
:100920009D090008002301400020014008B5836BA9
:100930001A6C12F0500F26D11A6C42F400721A642D
:100940001A68916811F0405F19D19969B9B9D16AF3
:1009500011F4700F03D0916811F4806F0FD15168BA
:1009600021F0200151601A6C22F480721A641A6C12
:1009700012F4805F03D11A6C42F001021A64184627
:1009800003F0F6FF08BD9B6B9B6C984708BD704752
:1009900008B5806BFFF7FBFF08BD704708B5806B9B
:1009A00040230364436C43F004034364FFF7F5FF03
:1009B00008BD000030B583B005460C460023019306
:1009C0000B68122B4ED86368013B0F2B50D8A368DD
:1009D000072B53D895F83C30012B00F0C78001233A
:1009E00085F83C302368092B4ED92868C2689BB231
:1009F00003EB43031E3B072101FA03F322EA03033F
:100A0000C3602868C268A168238803EB43031E3BC8
:100A100001FA03F31343C3606368062B4AD82868BE
:100A2000426B03EB8303053B1F2101FA03F322EA28
:100A3000030343632868426B636803EB8303053B4E
:100A4000218801FA03F3134343632A68484B9A420F
:100A500060D02A68464B9A4265D0002085F83C0059
:100A600003B030BD40F2FE41424802F07DFBAAE7F0
:100A700040F2FF413F4802F077FBA8E74FF4A06146
:100A80003C4802F071FBA5E7286802699BB203EBC2
:100A90004303072101FA03F322EA030303612868F1
:100AA0000269A168238803EB430301FA03F31343AC
:100AB0000361B1E70C2B16D82868026B03EB8303A4
:100AC000233B1F2101FA03F322EA0303036328688F
:100AD000026B636803EB8303233B218801FA03F372
:100AE00013430363B1E72868C26A03EB8303413B06
:100AF0001F2101FA03F322EA0303C3622868C26AD2
:100B0000636803EB8303413B218801FA03F313433A
:100B1000C3629AE72368122B9BD1174A536843F4A8
:100B20008003536095E72368103B012B95D8124A48
:100B3000536843F4000353602368102B8DD10F4B8F
:100B40001B6802F1467202F52E3202F28332A2FBDA
:100B500003239B0C03EB83035A00019202E0019BE9
:100B6000013B0193019B002BF9D176E7022077E747
:100B70000020014038540008002301400C000020F0
:100B800010B50446C31E042B0FD80A4AD36823F4B9
:100B9000E0631B041B0C240204F4E064234343F0D1
:100BA000BF6343F40033D36010BDA421024802F0B8
:100BB000DBFAEAE700ED00E06854000870B505468E
:100BC0000C4616460F2A24D80F2C27D81A4BDB6860
:100BD000C3F30223C3F10702042A28BF0422191D0C
:100BE000062920D9033B012101FA02F2013A1440FF
:100BF0009C4001FA03F3013B33401C43002D14DBFE
:100C00002401E4B205F1604505F5614585F800432E
:100C100070BDBC21094802F0A7FAD5E7BD210748FD
:100C200002F0A2FAD2E70023DDE705F00F05240168
:100C3000E4B2034B5C5570BD00ED00E06854000861
:100C400014ED00E010B5041E09DB620904F01F0476
:100C5000012303FA04F4044B43F8224010BDD021D1
:100C6000024802F081FAF0E700E100E06854000871
:100C70000138B0F1807F0AD2064B5860F021064A55
:100C800082F823100020986007221A607047012024
:100C9000704700BF10E000E000ED00E010B5044632
:100CA000042800D038B9042C0BD0094A136823F06B
:100CB0000403136010BD40F2B311064802F054FA69
:100CC000F1E7034A136843F00403136010BD00BF4B
:100CD00010E000E06854000830B405682C6824F483
:100CE00080242C60046863608368402B05D003680F
:100CF00099600368DA6030BC704703689A600368E3
:100D0000D960F8E70268D3B2103B0B49A1FB03138B
:100D10001B090A49C95C4165032B06D822F47F727E
:100D200022F003020265006D704722F47F7222F008
:100D3000030204320265F6E7ABAAAAAACC54000863
:100D4000002800F00C8110B504460368854A9342E0
:100D500031D0183293422ED0183293422BD0183211
:100D6000934228D01832934225D01832934222D091
:100D7000183293421FD0183293421CD002F556729B
:100D8000934218D01832934215D01832934212D0A1
:100D9000183293420FD0183293420CD0183293423B
:100DA00009D01832934206D01832934203D0C5219D
:100DB0006D4802F0D9F96368C3B1B3F1007F15D073
:100DC000B3F1806F12D0B3F1C06F0FD0B3F1006FE9
:100DD0000CD0B3F1206F09D0B3F1406F06D0B3F15E
:100DE000606F03D0C621604802F0BEF9A3683BB132
:100DF000402B05D0802B03D0C7215B4802F0B4F90B
:100E0000E368B3F5007F02D0002B40F091802369A6
:100E1000B3F5806F02D0002B40F08F8063694BB137
:100E2000B3F5006F06D0B3F5805F03D0CA214E48FA
:100E300002F09AF9A3694BB1B3F5005F06D0B3F5A0
:100E4000804F03D0CB21484802F08EF9E36943B1CB
:100E5000B3F5807F05D0202B03D0CC21424802F08F
:100E600083F9236A63B1B3F5803F09D0B3F5003F3E
:100E700006D0B3F5403F03D0CD213B4802F074F9D2
:100E8000636A2BB1042B03D0CE21374802F06CF9F2
:100E9000636A03B3A36A032B54D8E36A63B1B3F55F
:100EA000000F09D0B3F1807F06D0B3F1C07F03D02B
:100EB000D4212D4802F058F9236B63B1B3F5001F1C
:100EC00009D0B3F5800F06D0B3F5C00F03D0D521FC
:100ED000254802F049F9022384F8353021680B686F
:100EE000224A1A406368A0680343E068034320690C
:100EF000034360690343A0690343E0690343206A35
:100F000003431343626A042A21D00B6022685369A9
:100F100023F00703616A0B4304291DD05361204667
:100F2000FFF7F0FE0020E064012384F8353010BDA7
:100F3000C8210D4802F018F969E7C9210A4802F0F2
:100F400013F96BE7D321084802F00EF9A5E7E26A2E
:100F5000206B02431343D8E7A16A0B43DEE701206D
:100F6000704700BF106002409C5400083F8010F0A2
:100F700030B338B5044690F83530DBB2022B21D0BF
:100F80000268136823F001031360036800251D60E5
:100F900003685D6003689D600368DD6003681D6130
:100FA000036821225A61FFF7ADFE626D3F23934033
:100FB0008360E56484F8355084F83450284638BDA1
:100FC00001207047012038BDF8B590F83440012C5D
:100FD00030D01D4616460F460446012380F83430B3
:100FE000022380F835306A1E4FF6FE739A421BD8F2
:100FF0002068036823F0010303602B46324639461C
:101000002046FFF769FE2268136843F01E03136051
:101010002268536943F0800353612268136843F0E8
:10102000010313600020F8BD40F29911024802F05C
:101030009BF8DDE70220F8BD9C54000838B5044653
:10104000056D2A68416D08238B401A4219D0036848
:101050001A6812F0040F14D01A6822F004021A6001
:10106000426D08239340AB60C36C43F00103C3643B
:10107000042380F83530002380F83430836C03B1CA
:1010800098472A68616D584B8B401A421AD02368E2
:101090005A6912F0800F15D05A6922F080025A6105
:1010A000626D514B9340AB60E36C43F00203E36429
:1010B000042384F83530002384F83430A36C0BB15A
:1010C000204698472A68616D484B8B401A421AD0D7
:1010D00023681A6812F0020F15D01A6822F0020273
:1010E0001A60626D414B9340AB60E36C43F00403C4
:1010F000E364042384F83530002384F83430A36C8F
:101100000BB1204698472A68616D10238B401A4224
:101110002DD02268116811F0080F28D0116811F441
:10112000802F11D0AB6023681A6812F4002F03D10E
:10113000312384F8353016E01B6813F4002F12D0E9
:10114000412384F835300EE0136813F4807F03D117
:10115000136823F008031360626D10239340AB60A3
:10116000312384F83530236C0BB1204698472A6828
:10117000616D20238B401A4234D02268116811F02F
:10118000100F2FD0116811F4802F13D0AB6023689B
:101190001A6812F4002F04D1636C1BB320469847E1
:1011A00038BD1B6813F4002F1CD0E36BD3B120466D
:1011B000984738BD136813F4807F03D1136823F078
:1011C00010031360626D20239340AB60E36CE36413
:1011D000112384F83530002384F83430E36B0BB1ED
:1011E0002046984738BD00BF010080000400800001
:1011F0002DE9F04782B080460F46B54B984223D088
:1012000003F5806398421FD003F5806398421BD09A
:1012100003F58063984217D003F58063984213D09A
:1012200003F5806398420FD003F5806398420BD09A
:1012300003F58063984207D003F58063984203D09A
:10124000C521A44801F090FF3B8853B37B68012B74
:1012500022D9112B20D0022B1ED0122B1CD09E4A3B
:10126000934219D002F58012934215D002F58012F4
:10127000934211D0A2F5F81293420DD002F58012DC
:10128000934209D002F58012934205D0032B03D07C
:10129000C721904801F068FFBB68022B06D80025E3
:1012A0007AE0C6218B4801F05FFFCFE7C82189486B
:1012B00001F05AFFF3E73B69FBB1092B1DD0012B6D
:1012C0001BD0022B19D0032B17D0042B15D0052BC4
:1012D00013D0062B11D0072B0FD0082B0DD00A2BC3
:1012E0000BD00B2B09D00C2B07D00D2B05D00F2BBF
:1012F00003D0D921774801F037FFE908083158F8C1
:10130000213005F0070292000F20904023EA0003ED
:10131000386900FA02F2134348F821304CE0EC211E
:101320006C4801F021FF63E0082100E00021A140AA
:101330000A430233694941F82320694B1A686FEA6E
:10134000090302EA0301786810F4803F01D049EAFA
:101350000201634A1160526803EA0201786810F4DE
:10136000003F01D049EA02015D4A5160926803EAF8
:101370000201786810F4801F01D049EA0201584A3E
:101380009160D2681340796811F4001F01D049EAD6
:101390000203534AD36001350F2D00F296800124D9
:1013A000AC403B6804EA03094C45F4D17B68022B4E
:1013B00081D0122B3FF47FAFD8F800304FEA450AB6
:1013C000032606FA0AF6F64333407A6802F003026F
:1013D00002FA0AF21343C8F800307B685A1E012A49
:1013E00003D9112B01D0122B16D1FB68032B96D8F1
:1013F000D8F808303340FA6802FA0AF21343C8F802
:101400000830D8F8043023EA04047B68C3F30013DF
:10141000AB401C43C8F80440D8F80C301E40BB68F1
:1014200003FA0AF31E43C8F80C607B6813F0805F70
:10143000B1D0002301932B4B5A6C42F480425A6482
:101440005B6C03F480430193019BAB08991C234A16
:1014500052F8212005F003018C000F21A14022EA5F
:1014600001021B4880453FF461AF1F4988451ED0EB
:1014700001F5806188451CD001F5806188451AD04E
:1014800001F58061884518D001F58061884516D046
:1014900001F58061884514D001F58061884512D03E
:1014A00001F5806188453FF43FAF09213FE7012105
:1014B0003DE702213BE7032139E7042137E7052116
:1014C00035E7062133E7072131E702B0BDE8F087B1
:1014D00000000240D4540008000011100038014000
:1014E000003C0140003802400004024038B5054687
:1014F0000C4621B12B691C4207D1002038BD4FF4A6
:10150000C871034801F030FEF4E7012038BD00BF88
:10151000D454000870B5064615460C4651B1012D4D
:1015200004D94FF4D971074801F01EFE45B92404CF
:10153000B46170BD40F2B111024801F015FEEEE752
:10154000B46170BDD454000808B5054B5B69034213
:1015500000D108BD024B586103F09CF8F9E700BFC9
:10156000003C014003685A6912F4806F0DD06FF49B
:1015700080625A610423036400230363202280F8FD
:101580003D2080F83C3001207047002070472DE955
:10159000F04106460C4690461D46FEF75FFF0746A3
:1015A000B8F1000F1CD047E025B1FEF757FFC01B74
:1015B000854215D200233363202286F83D2086F829
:1015C0003C300320BDE8F08133685B6924EA030303
:1015D0009BB2003318BF01237BB1B5F1FF3FE3D1CC
:1015E000C4F30743012BEFD033689B6924EA03035C
:1015F0009BB2003318BF0123EEE70020BDE8F08165
:1016000025B1FEF72BFFC01B854215D200233363A3
:10161000202286F83D2086F83C300320BDE8F0818A
:1016200033685B6924EA03039BB2B3FA83F35B0973
:101630007BB1B5F1FF3FE3D1C4F30743012BEFD0FA
:1016400033689B6924EA03039BB2B3FA83F35B0913
:10165000EEE70020BDE8F081F8B504460D461646D9
:10166000FEF7FCFE074632E01A6842F400721A6088
:1016700023686FF480625A61042323640023236388
:10168000202284F83D2084F83C300120F8BD26B1AA
:10169000FEF7E4FEC01B864219D2002323632022FA
:1016A00084F83D2084F83C300320F8BD23685B6952
:1016B00025EA03039BB2003318BF0123A3B12368BB
:1016C0005A6912F4806FCFD1B6F1FF3FDFD1C5F375
:1016D0000743012BEAD023689B6925EA03039BB2E9
:1016E000003318BF0123E9E70020F8BD70B50446B8
:1016F0000D46FEF7B3FE064623685B6913F0800FC4
:1017000019D12046FFF72EFFB8B9B5F1FF3FF3D04E
:1017100025B1FEF7A3FE801B8542EDD2236C43F07A
:101720002003236400232363202284F83D2084F8CF
:101730003C30032070BD002070BD012070BD000052
:10174000F0B583B004460D4616461F46026813687E
:1017500043F480731360089B00224FF00111FFF7E0
:1017600016FF18B10323184603B0F0BD236805F037
:10177000FE051D61089A22492046FFF76DFF30B132
:10178000236C042B01D00323EDE70123EBE70023B7
:10179000019323685A6901929B690193019B0899FF
:1017A0002046FFF7A3FF034658B1236C042B01D05A
:1017B0000323D8E72268136843F4007313600123FE
:1017C000D1E7012F0DD02368320A1A61089920460B
:1017D000FFF78CFF034678B1236C042B05D003235D
:1017E000C1E72268F6B21661BDE72268136843F4C8
:1017F000007313600123B6E72268F6B21661B2E700
:1018000002000100F0B583B004460D4616461F469F
:101810000268136843F4806313600268136843F43A
:1018200080731360089B00224FF00111FFF7AFFE99
:1018300018B10323184603B0F0BD2368EDB205F0DC
:10184000FE021A61089A3A492046FFF705FF30B1B7
:10185000236C042B01D00323ECE70123EAE70023E8
:10186000019323685A6901929B690193019B08992E
:101870002046FFF73BFF58B1236C042B01D0032314
:10188000D8E72268136843F4007313600123D1E79B
:10189000012F0CD02368320A1A6108992046FFF7FD
:1018A00025FFC0B1236C042B0ED00323C2E72368AD
:1018B000F6B21E6108992046FFF718FFB0B1236CFD
:1018C000042B0CD00323B5E72268136843F400739C
:1018D00013600123AEE72368F6B21E61EAE72268CF
:1018E000136843F4007313600123A3E722681368AD
:1018F00043F480731360089B00224FF001112046CF
:10190000FFF745FE08B1032394E7236845F001057E
:101910001D61089A06492046FFF79EFE03460028EF
:1019200088D0236C042B01D0032383E7012381E7B4
:101930000200010070B505460C46FEF78FFD064615
:101940002B685A6912F0400F22D15A6912F0100F19
:1019500011D124B1FEF782FD801B8442F0D22B6CA2
:1019600043F020032B64202385F83D30002385F8C5
:101970003C30032070BD6FF010025A6100232B64CD
:101980002B63202285F83D2085F83C30012070BD76
:10199000002070BD70470000002800F0E78038B5D7
:1019A00004460368724A93420CD002F58062934267
:1019B00008D002F58062934204D04FF4B1716D48B3
:1019C00001F0D2FB6368013B6B4A934200F28180D5
:1019D000A3683BB1B3F5804F04D04FF4B2716548B2
:1019E00001F0C2FBE36823F47F7323F00303002BB1
:1019F00075D12369B3F5804F07D0B3F5404F04D0BC
:101A00004FF4B3715B4801F0AFFB6369012B04D95C
:101A100040F26711574801F0A7FBA36933F0FE03BA
:101A200063D1E36933B1402B04D040F269115148CE
:101A300001F09AFB236A33B1802B04D04FF4B571C7
:101A40004C4801F091FB94F83D30002B53D02423F7
:101A500084F83D302268136823F00103136001F01D
:101A600025F8464BA3FB00239B0C2268536021689A
:101A70006568434A954244D801330B622168636824
:101A80003F4A934247D85B00B0FBF3F0C0F30B032F
:101A9000032B00D80420C8612268E369216A0B4344
:101AA000136022682369E1680B43936022686369CD
:101AB000A1690B43D3602268136843F001031360EC
:101AC00000202064202384F83D30206384F83E0009
:101AD00038BD40F26311274801F046FB78E740F239
:101AE0006511244801F040FB83E74FF4B4712148AD
:101AF00001F03AFB95E784F83C302046FFF74AFFB7
:101B0000A5E74FF4967202FB03F31E4AA2FB0323E0
:101B10009B090133B1E7A5688DB903EB4302B0FB24
:101B2000F2F2C2F30B02B2FA82F25209E2B995B9AB
:101B300003EB4303B0FBF3F040F40040ABE703EBEF
:101B4000830202EB8202B0FBF2F2C2F30B02B2FAA2
:101B500082F25209EAE703EB830303EB8303B0FB52
:101B6000F3F040F4404096E7012094E701207047ED
:101B700000540040045500087F1A060083DE1B4312
:101B8000A0860100D34D62107047000038B310B535
:101B900004460368134A93420CD002F580629342D4
:101BA00008D002F58062934204D040F2B1110E4891
:101BB00001F0DAFA242384F83D302268136823F018
:101BC000010313602046FFF7DFFF0020206484F844
:101BD0003D00206384F83E0084F83C0010BD0120E5
:101BE000704700BF00540040045500082DE9F04143
:101BF00082B005460F4690461C46BDF82460012B76
:101C000006D0102B04D040F6FE01484801F0ACFA93
:101C100095F83D30DBB2202B04D00223184602B0E9
:101C2000BDE8F08142F21073012241492846FFF7D6
:101C3000AEFC08B10223F1E795F83C30012B01D14D
:101C40000223EBE7012385F83C302A68136823F46C
:101C500000631360212385F83D30402385F83E3032
:101C600000232B64A3F58033EB620A9B0093234689
:101C7000424639462846FFF763FDD0B12B6C042B52
:101C800004D0002385F83C300323C7E7002385F800
:101C90003C300123C2E72B6C042B01D00323BDE7AA
:101CA0002A68136843F4007313600123B6E71E46E5
:101CB0000892DEB10A992846FFF718FD0028EAD1FC
:101CC0002B68089A0132089909781961731E9BB232
:101CD0002968486910F0040FE9D0002BE7D0137889
:101CE0000B61B31E9BB2089A0232E0E70A992846BC
:101CF000FFF7FCFC034658B12B6C042B01D00323E7
:101D00008CE72A68136843F400731360012385E7A6
:101D100029680A6842F400720A60202285F83D2092
:101D2000002285F83E2085F83C2077E7045500081E
:101D3000020010002DE9F04186B005460F4690469E
:101D40001C46BDF83460012B06D0102B04D04FF494
:101D500017618E4801F008FA95F83D30DBB2202B70
:101D600004D00224204606B0BDE8F08142F2107390
:101D7000012287492846FFF70AFC08B10224F1E74F
:101D800095F83C30012B01D10224EBE7012385F8C3
:101D90003C302A68136823F400631360222385F81B
:101DA0003D30402385F83E3000232B64A3F580337B
:101DB000EB620E9B00932346424639462846FFF7C6
:101DC00021FD044660B12B6C042B04D0002385F860
:101DD0003C300324C6E7002385F83C300124C1E7EA
:101DE00066B9002302932B685A6902929A6902929B
:101DF000029A1A6842F400721A605EE0012E0AD05C
:101E0000022E1AD0002305932B685A6905929B690C
:101E10000593059B51E02A68136823F480631360DF
:101E2000002303932B685A6903929A690392039AD9
:101E30001A6842F400721A603FE02A68136823F4BB
:101E4000806313602A68136843F4006313600023FF
:101E500004932B685A6904929B690493049B2CE0B9
:101E60000E992846FFF766FD48B92B681B690C9A46
:101E70001370013EB6B2134601330C931DE02B6C78
:101E8000202B7AD103246DE70E9B0022414928467E
:101E9000FFF77DFB002872D12A68136843F40073B2
:101EA00013602B681A690C9B03F8022B2A681269CD
:101EB0000C994A70023EB6B20C93002E54D0032EF9
:101EC0002ED8012ECCD0022EDED00E9B002231491E
:101ED0002846FFF75CFB002853D12A68136823F4D7
:101EE000806313602B681B690C9A13700E9B002291
:101EF00028492846FFF74BFB002844D12A6813687D
:101F000043F4007313602B681B690C9A53702B68A1
:101F10001B699370033EB6B2134603330C93CCE7B0
:101F20000E992846FFF706FDA0B90C9B581C2B689C
:101F30001B690C9A1370731E9BB22A68516911F0C9
:101F4000040F0ED00C9B02330C9313690370023EF6
:101F5000B6B2B2E72B6C202B01D0012402E7032498
:101F600000E71E460C90A8E7202385F83D300023AB
:101F700085F83E3085F83C30F4E60124F2E603248F
:101F8000F0E60324EEE60324ECE600BF0455000867
:101F9000020010000400010090F83D0070477047F7
:101FA000002951D010B50C46002A4FD090F83D3092
:101FB000DBB2012B01D0022010BD41620368DB6956
:101FC00003F00703032B0AD0052B08D002854285B6
:101FD00090F83C30DBB2012B06D1022010BD52003C
:101FE00092B202854285F3E721460446012380F838
:101FF0003C30122380F83D3000230364436B144AC5
:102000001A64436B134ADA63436B134A9A64026897
:10201000038D9BB20C32406BFEF7D6FF2368DA6962
:1020200012F4806F03D1DA6942F48062DA612368C6
:102030005A6812F0020F03D15A6842F002025A6045
:10204000002084F83C0010BD01207047012010BD25
:102050005D2000088D2000086720000808B5806B0F
:1020600001F0B6FD08BD08B5806B002343854386AB
:10207000012380F83D30036C43F02003036401F03A
:10208000B5FD08BD90F83D007047000008B5836BB2
:102090000268126812F4807F11D11A6A012A12D0E4
:1020A00019684A6822F002024A6000225A8593F8B1
:1020B0003D20D2B2322A23D0012283F83D20184697
:1020C00001F07AFD08BD1A68D16901F44071B1F5DB
:1020D000007F03D0D16911F4407F04D1516821F011
:1020E00002015160E1E70A498A4206D04FF04021DF
:1020F0004A6822F002024A60D7E7A1F58061F7E75B
:102100005A8E92B2002ADAD1012283F83D20D6E716
:1021100000380040C369012B19D0134B5B6813F4DE
:10212000800F19D0104B5B6803F03F030F48B0FBE2
:10213000F3F30D4AD2F88400C0F3881000FB03F0DB
:10214000D2F88430C3F30273B0FBF3F0704701227E
:10215000074B1A6007487047034B5B6803F03F0367
:102160000548B0FBF3F3E4E70038024000127A00C0
:102170005C0147420080BB000024F400002800F00E
:10218000FE8070B50446436863B1B3F5807F09D023
:10219000B3F5007F06D0B3F5407F03D0C421794862
:1021A00000F0E2FFA3685BB1102B09D0202B07D011
:1021B000302B05D0B02B03D0C521724800F0D4FFDE
:1021C000E368012B07D9032B05D0052B03D0C621CB
:1021D0006C4800F0C9FF2369B3F5007F01D0002BE4
:1021E00074D16369A3F5FA51674A914205D9022B6C
:1021F00003D0C821634800F0B7FFA3692BB1082BB7
:1022000003D0C9215F4800F0AFFFE369012B03D978
:10221000CA215C4800F0A8FF94F83D30002B5AD04A
:10222000022284F83D202168CB6923F47B6323F0EC
:102230000F03CB6123681A622368DE6963699342E6
:102240005AD0E368002B4CD101252046FFF762FFEE
:102250002369B3F5007F46D06D01B0FBF5F000EBCC
:10226000800045006369B5FBF3F50535474BA3FBDB
:102270000535ED0805F00102AB1A5B081202991E44
:10228000FD2901D90022022321682069024313435A
:102290000B626368A2681343E2681343A2691343A5
:1022A000334343F400632268D361236A012B04D9CA
:1022B0004FF49371334800F057FF236A012B1ED06F
:1022C00000202064012384F83D3070BDC7212D48D3
:1022D00000F04AFF85E784F83C302046FFF75FFEB8
:1022E0009EE70225B1E7000A00EB80004500636924
:1022F000B5FBF3F50535B9E700252A46BFE72268A7
:10230000234B9A4223D04FF04022D36923F47B63BE
:1023100023F00F03D36122681D4B9A4219D04FF06E
:102320004022022313622268194B9A4213D04FF0C5
:102330004021CB696268B2F5007F0ED082B1B2F560
:10234000407F1AD0B2F5807F0CD100250AE0114AF7
:10235000DBE7104AE5E70F49EBE74FF4807501E052
:102360004FF48075A2681543E2681543A2691543CE
:102370001D4345F40065CD61A2E70025F2E7012089
:10238000704700BF34550008C0CE0200CDCCCCCC85
:10239000003800400034004030B583B00446036884
:1023A0000F2B2DD8236813F0010F3CD06368012B4D
:1023B00005D9052B03D0FB219F4800F0D5FE9F4B8C
:1023C0009B6803F00C03042B24D09C4B9B6803F008
:1023D0000C03082B19D02279994B1A706368002BD3
:1023E00050D0FEF73BF80546944B1B6813F4003FB2
:1023F00019D1FEF733F8401B6428F5D90320D7E143
:10240000F6218D4800F0B0FECCE78C4B5B6813F4EE
:10241000800FE0D0894B1B6813F4003F03D0636842
:10242000002B00F0C281236813F0020F5CD0E36838
:10243000012B04D940F22D117F4800F095FE23694D
:102440001F2B2ED87D4B9B6813F00C0F34D07B4B89
:102450009B6803F00C03082B29D0E368002B72D093
:102460000122784B1A60FDF7F9FF0546734B1B6894
:1024700013F0020F58D1FDF7F1FF401B0228F5D9E8
:10248000032095E1FDF7EAFF05466C4B1B6813F44A
:10249000003FC8D0FDF7E2FF401B6428F5D90320B8
:1024A00086E14FF49771644800F05EFECAE7634B23
:1024B0005B6813F4800FD0D1604B1B6813F0020FE0
:1024C00004D0E368012B01D0012071E15B4803686F
:1024D00023F0F8032169F82292FAA2F2B2FA82F20A
:1024E00001FA02F213430360236813F0080F4ED081
:1024F0006369012B04D94FF4B7714F4800F034FEE3
:10250000636993B30122504B1A60FDF7A7FF05469C
:102510004A4B5B6F13F0020F39D1FDF79FFF401B51
:102520000228F5D9032043E14448036823F0F80367
:102530002169F82292FAA2F2B2FA82F201FA02F2C8
:1025400013430360D0E700223E4B1A60FDF786FF7D
:1025500005463A4B1B6813F0020FC5D0FDF77EFF0E
:10256000401B0228F5D9032022E10022364B1A60D5
:10257000FDF774FF0546314B5B6F13F0020F06D079
:10258000FDF76CFF401B0228F5D9032010E12368FA
:1025900013F0040F5ED0A368012B06D9052B04D0DD
:1025A0004FF4CC71244800F0DFFD00230193234B4E
:1025B0001A6C42F080521A641B6C03F08053019332
:1025C000019B224A136843F480731360FDF746FFB2
:1025D00005461E4B1B6813F4807F06D1FDF73EFFB6
:1025E000401B0228F5D90320E2E0227A184B1A702A
:1025F000A36883B1FDF732FF0546104B1B6F13F044
:10260000020F27D1FDF72AFF401B41F28833984281
:10261000F3D90320CCE0FDF721FF0546074B1B6FE4
:1026200013F0020F16D0FDF719FF401B41F288335B
:102630009842F3D90320BBE07855000800380240E7
:102640000238024000004742800E474200700040BE
:1026500070380240A369022B1FD8A369002B00F039
:10266000A680554A926802F00C02082A00F0A28067
:10267000022B18D00022514B1A60FDF7EFFE0446E2
:102680004D4B1B6813F0007F00F08D80FDF7E6FED8
:10269000001B0228F4D903208AE040F2CD114848FB
:1026A00000F062FDD9E7E3693BB1B3F5800F04D0D8
:1026B0004FF4EB71424800F057FD236A3F2B28D8B6
:1026C000636A323BB3F5BF7F29D8A36A022B0AD0D5
:1026D000042B08D0062B06D0082B04D040F2D911C9
:1026E000374800F041FDE36A043B0B2B1DD8002264
:1026F000324B1A60FDF7B2FE05462F4B1B6813F0F4
:10270000007F18D0FDF7AAFE401B0228F5D9032050
:102710004EE040F2D7112A4800F026FDD0E74FF4F2
:10272000EC71274800F020FDCFE74FF4ED7124480D
:1027300000F01AFDDBE7E369226A1343616A47F69A
:10274000C07292FAA2F2B2FA82F201FA02F21343D2
:10275000A26A5208013A4FF4403191FAA1F1B1FA5C
:1027600081F18A401343E16A4FF0706292FAA2F25B
:10277000B2FA82F201FA02F213430F4A53600122C5
:102780000E4B1A60FDF76AFE04460B4B1B6813F0F4
:10279000007F06D1FDF762FE001B0228F5D9032059
:1027A00006E0002004E0002002E0012000E000201C
:1027B00003B030BD0120FBE7003802406000474213
:1027C0007855000870B504460D460368013B0E2B92
:1027D00011D8072D15D8804B1B6803F00F039D42BD
:1027E00015D9EBB27C4A1370136803F00F039D42B6
:1027F0000DD0012070BD4FF40E71784800F0B4FC8C
:10280000E7E740F23921754800F0AEFCE3E72368C2
:1028100013F0020F1DD0A368A3B1802B12D0902B10
:1028200010D0A02B0ED0B02B0CD0C02B0AD0D02BA8
:1028300008D0E02B06D0F02B04D04FF41471674879
:1028400000F092FC664A936823F0F003A1680B4302
:102850009360236813F0010F69D06368032B29D8B4
:102860006368012B2CD09A1E012A30D95C4A126869
:1028700012F0020F00F0AD8059498A6822F003027D
:1028800013438B60FDF7EAFD06466368012B25D0F4
:10289000022B32D0032B3FD0514B9B6813F00C0F0F
:1028A00045D0FDF7DBFD801B41F288339842F3D918
:1028B000032070BD40F25721484800F055FCCFE797
:1028C000474A126812F4003FD6D1012070BD444A35
:1028D000126812F0007FCFD1012070BD404B9B6881
:1028E00003F00C03042B22D0FDF7B8FD801B41F24E
:1028F00088339842F2D9032070BD394B9B6803F0AE
:102900000C03082B13D0FDF7A9FD801B41F288337F
:102910009842F2D9032070BD314B9B68FDF79EFDB4
:10292000801B41F288339842F6D9032070BD2A4BB0
:102930001B6803F00F039D4209D2EAB2264B1A70BE
:102940001B6803F00F039D4201D0012070BD236876
:1029500013F0040F19D0E36883B1B3F5805F0DD095
:10296000B3F5A05F0AD0B3F5C05F07D0B3F5E05F61
:1029700004D040F2B521194800F0F6FB184A9368DC
:1029800023F4E053E1680B439360236813F0080FCE
:102990001AD0236983B1B3F5805F0DD0B3F5A05F82
:1029A0000AD0B3F5C05F07D0B3F5E05F04D04FF4B1
:1029B0002F710A4800F0D8FB094A936823F460435A
:1029C000216943EAC10393600F20FDF711FD002048
:1029D00070BD012070BD00BF003C0240785500086A
:1029E00000380240214B9B6803F00C03042B3AD0C3
:1029F000082B01D01E4870471C4B586800F03F0060
:102A00005B6813F4800F1ED01A4AB2FBF0F2174B2A
:102A1000586847F6C073184093FAA3F3B3FA83F3E8
:102A2000D84000FB02F0114B5B6803F440334FF4D5
:102A3000403292FAA2F2B2FA82F2D34001335B0042
:102A4000B0FBF3F070470A4AB2FBF0F2074B58684C
:102A500047F6C073184093FAA3F3B3FA83F3D84050
:102A600000FB02F0DFE70348704700BF0038024078
:102A70000024F40000127A0008B5FFF7B3FF084BFA
:102A80009B6803F0F003F02292FAA2F2B2FA82F20B
:102A9000D340044AD35CD840034B186008BD00BF44
:102AA00000380240685500080C00002008B5FFF708
:102AB000E3FF074B9B6803F4E0534FF4E05292FAB4
:102AC000A2F2B2FA82F2D340024AD35CD84008BDE7
:102AD000003802406855000830B583B005460368E9
:102AE000013B062B1ED82B6813F0010F53D0AB68A7
:102AF000023B052B1CD86B68323BB3F5BF7F1DD85A
:102B000000225B4B1A60FDF7A9FC0446594B1B6879
:102B100013F0006F18D0FDF7A1FC001B0228F5D9B7
:102B200003203DE040F21661534800F01DFBDAE758
:102B300040F21C61504800F017FBDCE740F21D61D9
:102B40004D4800F011FBDBE76B6847F6C07292FA64
:102B5000A2F2B2FA82F29340A9684FF0E04292FAF0
:102B6000A2F2B2FA82F201FA02F21343414AC2F827
:102B7000843001223E4B1A60FDF770FC04463D4B49
:102B80001B6813F0006F06D1FDF768FC001B0228DC
:102B9000F5D9032004E02B6813F0020F02D10020C6
:102BA00003B030BD00230193324B1A6C42F08052C7
:102BB0001A641B6C03F080530193019B2F4A136826
:102BC00043F480731360FDF749FC04462B4B1B68EC
:102BD00013F4807F06D1FDF741FC001B0228F5D9D4
:102BE0000320DDE7234B1B6FEA68534013F4407F5B
:102BF0003CD0204A136F23F44070214901240C601B
:102C000000240C60106713F0020F13D1EB6803F47B
:102C10004072B2F5407F1ED0164A936823F4F81331
:102C2000936014490B6FEA68C2F30B0213430B67FE
:102C30000020B5E7FDF712FC04460E4B1B6F13F0A6
:102C4000020FE3D1FDF70AFC001B41F288339842E2
:102C5000F3D90320A4E707498A6822F4F81223F085
:102C6000704323F4407313438B60DAE7002097E747
:102C70006800474200380240A85500080070004034
:102C8000400E4742032303601049D1F8842047F6E1
:102C9000C0731A4093FAA3F3B3FA83F322FA03F34F
:102CA0004360D1F8843003F0E0434FF0E04292FA01
:102CB000A2F2B2FA82F2D34083608B6803F4F81375
:102CC0000A6F02F440721343C36070470038024039
:102CD0007047000010B504460368234A934237D07A
:102CE000B3F1804F34D0A2F57C42934230D002F54C
:102CF000806293422CD002F58062934228D002F584
:102D00008062934224D002F58062934220D002F583
:102D1000704293421CD002F57052934218D002F5D3
:102D20008062934214D002F58062934210D0A2F5E3
:102D3000983293420CD002F58062934208D002F59B
:102D40008062934204D04FF4B271084800F00CFA4C
:102D50002268D36843F00103D3602268136843F00C
:102D600001031360002010BD00000140DC55000885
:102D7000704770477047704710B5044603681A697A
:102D800012F0020F11D0DA6812F0020F0DD06FF0BE
:102D900002021A610123037603689B6913F0030F93
:102DA00070D0FFF7E6FF0023237623681A6912F03C
:102DB000040F12D0DA6812F0040F0ED06FF0040284
:102DC0001A610223237623689B6913F4407F5FD046
:102DD0002046FFF7CEFF0023237623681A6912F0FE
:102DE000080F12D0DA6812F0080F0ED06FF0080248
:102DF0001A61042323762368DB6913F0030F4ED096
:102E00002046FFF7B6FF0023237623681A6912F0E5
:102E1000100F12D0DA6812F0100F0ED06FF01002FF
:102E20001A61082323762368DB6913F4407F3DD0C1
:102E30002046FFF79EFF0023237623681A6912F0CD
:102E4000010F03D0DA6812F0010F36D123681A6936
:102E500012F0800F03D0DA6812F0800F34D12368AB
:102E60001A6912F0400F03D0DA6812F0400F32D125
:102E700023681A6912F0200F03D0DA6812F0200FCD
:102E800030D110BDFFF774FF2046FFF773FF8AE7CC
:102E90002046FFF76DFF2046FFF76CFF9BE72046BB
:102EA000FFF766FF2046FFF765FFACE72046FFF718
:102EB0005FFF2046FFF75EFFBDE76FF001021A617A
:102EC000204601F0E5FCC1E76FF080021A61204660
:102ED00000F013F9C3E76FF040021A612046FFF7D4
:102EE0004AFFC5E76FF020021A61204600F004F99E
:102EF000C7E700000368454A90424AD0B0F1804FCE
:102F000049D0A2F57C42904247D002F580629042BF
:102F100045D002F58062904243D002F5784290425B
:102F200035D000221AB123F070034A681343374AA0
:102F300090423AD0B0F1804F50D0A2F57C429042FE
:102F40004ED002F5806290424CD002F580629042F1
:102F50004AD002F57842904248D002F57052904231
:102F600046D002F58062904244D002F580629042E1
:102F700042D0A2F59832904240D002F58062904251
:102F80003ED002F5806290420DD000220EE0012278
:102F9000C8E70122C6E70122C4E70122C2E70122F5
:102FA000C0E70122BEE7012200E001221AB123F4AA
:102FB0004073CA68134303608B68C3620B68836203
:102FC000124B984220D003F5806398421AD0002318
:102FD0000BB10B6903630123436170470122E5E7ED
:102FE0000122E3E70122E1E70122DFE70122DDE739
:102FF0000122DBE70122D9E70122D7E70122D5E749
:103000000122D3E70123E3E70123E1E700000140C8
:1030100000286BD010B504460368354A934236D079
:10302000B3F1804F33D0A2F57C4293422FD002F50A
:10303000806293422BD002F58062934227D002F542
:103040008062934223D002F5806293421FD002F542
:10305000704293421BD002F57052934217D002F592
:103060008062934213D002F5806293420FD0A2F5A2
:10307000983293420BD002F58062934207D002F55A
:103080008062934203D0D9211A4800F06DF8A368FA
:103090005BB1102B09D0202B07D0402B05D0602B23
:1030A00003D0DA21134800F05FF823694BB1B3F580
:1030B000807F06D0B3F5007F03D0DB210D4800F000
:1030C00053F894F839305BB1022384F83930211D6C
:1030D0002068FFF70FFF012384F83930002010BD6E
:1030E00084F838302046FFF7F3FDEDE70120704704
:1030F00000000140DC55000870477047FEE7000003
:1031000008B5034800F052F80120FFF7F7FF00BFB1
:103110000C56000808B503460C4A12685AB10B4A0F
:103120001068033323F003030344094A934206D88B
:10313000064A136008BD0749044A1160EFE701F031
:10314000E5FC0C2303604FF0FF3008BDB4C0002045
:1031500000FC01201068012001230360014B0B607B
:10316000704700BF0400002008B50A460146024827
:1031700000F004F8FFF7C4FF205600080FB400B5B4
:1031800083B004AB53F8042B01938021064801F06F
:10319000F7FC002803DD0146034800F04FF803B0B8
:1031A0005DF804EB04B07047BCC0002010B50446C5
:1031B00001F0B2FC0146204600F040F8012102482F
:1031C00000F03CF810BD00BFE456000800228A421F
:1031D00032D24FF06043D3F8803E13F0010F29D074
:1031E0004FF06043D3F8003E13F0010F22D010B42B
:1031F0000DE04FF06043D3F8803E13F0010F15D07F
:103200004FF06043D3F8003E13F0010F0ED04FF0A3
:1032100060431B68002BFAD004784FF060431C70A9
:10322000013201308A42E4D3084600E010465DF8DE
:10323000044B7047104670470846704708B5FFF7C3
:10324000C5FF08BD08B500F089F8054B054A9A602E
:10325000D3F8882042F47002C3F8882008BD00BF6C
:1032600000ED00E000000008F8B504460D461746E2
:103270001E462748FFF782FF21682648FFF77EFF9A
:1032800061682548FFF77AFFA1682448FFF776FFB9
:10329000E1682348FFF772FF21692248FFF76EFFBC
:1032A00061692148FFF76AFFA1692048FFF766FFBF
:1032B000E1691F48FFF762FF1E48FFF75FFF2946DD
:1032C0001D48FFF75BFF1D4CE16A1D48FFF756FFE5
:1032D000216B1C48FFF752FFE16B1B48FFF74EFFC5
:1032E00015F0800F0AD115F4004F0CD11748FFF7E5
:1032F00045FF06991648FFF741FFF8BD39461548C6
:10330000FFF73CFFEFE731461348FFF737FFEDE7E4
:103310004C5600085C5600086C5600087C560008A5
:103320008C5600089C560008AC560008BC56000895
:10333000CC560008DC560008E856000800ED00E016
:10334000F8560008085700081857000848570008A2
:103350005057000828570008385700080F49D1F87F
:10336000883043F47003C1F888300D4B1A6842F07E
:1033700001021A60002098601A6822F0847222F418
:1033800080321A60074A5A601A6822F480221A6052
:10339000D8604FF000638B60704700BF00ED00E025
:1033A0000038024010300024224B9B6803F00C03CD
:1033B000042B14D0082B16D01BB11F4A1F4B1A60C8
:1033C00002E01D4A1D4B1A601A4B9B68C3F303139E
:1033D0001B4AD15C194A1368CB4013607047194AE5
:1033E000164B1A60F0E7134B5A685B6803F03F0313
:1033F00012F4800F13D0134AB2FBF3F20D4B5B684B
:10340000C3F3881303FB02F30A4A5268C2F3014272
:1034100001325200B3FBF2F3084A1360D4E7064AC4
:10342000B2FBF3F2034B5B68C3F3881303FB02F3B5
:10343000EAE700BF003802400024F4000C0000203E
:103440009457000800127A0000207047002070474F
:1034500008B500F06EFA002008BD000070B56429C0
:103460001AD8C1EB0123154C84FB0324DA17C2EBF5
:103470006412D2B2E62911D8C5B21932D4B22246AA
:1034800020212846FFF7E4FF064622462121284650
:10349000FFF7DEFF304470BD6422EBE7C5B219329E
:1034A000D4B2224620212846FFF7D2FF0646224604
:1034B00021212846FFF7CCFF304470BD1F85EB511A
:1034C0002DE9F04107460E46904600F0FFF9FDB2A7
:1034D000012202212846FFF7BBFF0446731E032B7F
:1034E00064D8DFE803F002575B5FFA22314B1A70B1
:1034F000304B1A7804212846FFF7AAFF04448122A2
:1035000005212846FFF7A4FF04440422062128468B
:10351000FFF79EFF044441463846FFF79FFF0444EF
:10352000022E11D006220F212846FFF791FF0444F6
:10353000002224212846FFF78BFF04440022252186
:103540002846FFF785FF044400220A212846FFF79A
:103550007FFF044404220E212846FFF779FF04442C
:10356000002227212846FFF773FF04440F221F2162
:103570002846FFF76DFF04440A221A212846FFF768
:1035800067FF04440A221B212846FFF761FF2044FD
:10359000BDE8F081AF22074B1A70A9E7AA22054BBC
:1035A0001A70A5E70522034B1A70A1E70522014B0B
:1035B0001A709DE73CC1002038B5012914D0C5B26E
:1035C000002222212846FFF743FF04460022232140
:1035D0002846FFF73DFF04440D4B1A780421284686
:1035E000FFF736FF204438BDC5B2FF22042128462C
:1035F000FFF72EFF0446012222212846FFF728FF6D
:103600000444012223212846FFF722FF204438BD2D
:103610003CC100200E4B1B78012B01D000207047CD
:1036200070B50546C6B206220E213046FFF710FFE0
:10363000044600212846FFF7BFFF04449E220221D2
:103640003046FFF705FF20440022014B1A7070BD81
:103650001000002038B505460121FFF7ADFF0446F4
:1036600001220221E8B2FFF7F3FE204438BD00003A
:1036700070B582B00446002601963146FFF79CFFE4
:103680000546019602E0019B01330193019BFE2B4D
:10369000F9D9E4B2074B1A7804212046FFF7D8FE87
:1036A00005449E2202212046FFF7D2FE284402B0A4
:1036B00070BD00BF3CC1002038B504460121FFF7B2
:1036C0007BFF0546E4B204220E212046FFF7C0FE30
:1036D00005449F2202212046FFF7BAFE0122024B39
:1036E0001A70284438BD00BF1000002008B5013909
:1036F000032927D8DFE801F0020B141DFA22042168
:10370000C0B2FFF7A5FEFA22134B1A7008BDAF2214
:103710000421C0B2FFF79CFEAF220F4B1A7008BD08
:10372000AA220421C0B2FFF793FEAA220A4B1A7004
:1037300008BD05220421C0B2FFF78AFE0522064B10
:103740001A7008BD05220421C0B2FFF781FE0522D0
:10375000014B1A7008BD00BF3CC1002008B500F045
:10376000E7F808BD10B5044600F0B0F80121E0B25A
:1037700000F0E3F800F0F80010BD000030B589B0AB
:10378000002501951D4C236B43F002032363236B3B
:1037900003F002030193019B4FF410730393122370
:1037A00004930223069305950423079303A9144861
:1037B000FDF71EFD0295236C43F400132364236C74
:1037C00003F400130293029B236A43F40013236261
:1037D000236A23F4001323622A4629461F20FDF79B
:1037E000EDF91F20FDF72EFA2A4629462020FDF785
:1037F000E5F92020FDF726FA09B030BD0038024077
:103800000004024010B50B48FEF7C6FB00B110BD26
:10381000084C094B63600023A3603323E3604FF43B
:1038200080432361054B2360FFF7A8FF2046FEF786
:10383000B3F8ECE740C10020A0860100005400402E
:1038400008B50348FEF7A2F9FFF7DCFF08BD00BF8B
:1038500040C1002010B586B0044606A800F8012D2E
:10386000084B1B6802930123019300900A462146EE
:103870000548FEF7BBF908B906B010BD2046FFF7B2
:10388000DFFFF9E74400002040C1002010B586B0FA
:10389000044606AA002302F8013D0A4B1B68029366
:1038A0000123019300920A4601460748FEF742FAB7
:1038B00018B99DF8170006B010BD2046FFF7C0FFED
:1038C000F7E700BF4400002040C10020F0B587B0FA
:1038D00000260096144B1A6B42F008021A631B6B09
:1038E00003F008030093009B102501950127029720
:1038F0000223049303960D4C01A92046FDF778FCA2
:10390000FFF780FF324629462046FDF703FE0520DB
:10391000FCF7AAFD3A4629462046FDF7FBFD0520A7
:10392000FCF7A2FD07B0F0BD00380240000C0240D9
:10393000704708B5FFF78EFF08BD08B5FFF7A6FF73
:1039400008BD000070B58AB0002500953F4C236C7F
:1039500043F400432364236C03F400430093009B6F
:103960000195236B43F004032363236B03F00403EB
:103970000193019B0295236B43F001032363236BA7
:1039800003F001030293029B4FF4A053059302231B
:10399000069307950893062309932D4E05A93046F3
:1039A000FDF726FC1023059305A92A48FDF720FC06
:1039B0000395236B43F004032363236B03F0040399
:1039C0000393039B8023059305A93046FDF710FC64
:1039D0000495236B43F400132363236B03F4001358
:1039E0000493049B1C4B1A681C4B9A4209D000227A
:1039F00005212F20FDF7E2F82F20FDF723F90AB06B
:103A000070BD174C65604022A260E5604FF4806293
:103A100022614FF4006262614FF40052A261E561DD
:103A20004FF400322262042262620322A262E56243
:103A300025630C4B2360084B5C63A3632046FDF7B2
:103A400097FA2046FDF77CF9D1E700BF0038024025
:103A500000080240000002407CC20020003C004000
:103A600084C10020B860024008B50E4B0E4A1A60AF
:103A7000D16921F48061D16158610022DA619A61D3
:103A8000DA604FF40071196159609A601846FEF7C8
:103A9000F9FA18B10348FEF771FB08BDFFF752FFB2
:103AA000F8E700BF7CC20020003C00402DE9F04157
:103AB00084B080460F461446FF25002301E0013301
:103AC000DBB2072B06D8224A52F82320A242F6D1B5
:103AD0001D46F4E76846FFF7D5F815F0070F1AD131
:103AE000012300931B4B53F8253001931A4B53F8D5
:103AF000253002936846FEF7EFFF184B9B68942031
:103B0000984700F0F800E02810D001259DB1284624
:103B100004B0BDE8F081012300934FF48173019359
:103B2000032302936846FEF7D7FFE6E70B4A0C4BE8
:103B30001A600025EAE70A4B1B681E6823463A46CE
:103B400041469420B0472046FFF78EFFDFE700BFD5
:103B5000A4570008C4570008E457000814000020C8
:103B6000DCC1002038B505460C460C4B1B68DB68F1
:103B70008AB201469420984768B9B4F5003F07D24D
:103B8000C4F34F0229460648FEF70AFA002038BD62
:103B90004FF6FF72F6E7012038BD00BFDCC1002000
:103BA0007CC2002008B50A4601460248FEF7F8F933
:103BB00008BD00BF7CC2002008B50268034B9A42D2
:103BC00000D008BD00F034FFFBE700BF003C004020
:103BD00008B50268034B9A4200D008BD00F022FFEE
:103BE000FBE700BF003C00407047000010B50446F2
:103BF0000268074B9A4204D02268064B9A4203D0CF
:103C000010BD00F023FFF7E7FFF7EEFFF8E700BF76
:103C1000003C0040003800400A4B1B680A4AA2FBE7
:103C200003239B09013BB3F1807F09D2074A53600C
:103C3000F021074B83F823100023936007231360C0
:103C4000704700BF0C000020D34D621010E000E070
:103C500000ED00E0034B1B681BB1024A1368013BF7
:103C60001360704704C3002008B5FCF7EFFBFFF7B3
:103C7000F1FF08BD30B595B000240194214B1A6CBA
:103C800042F080521A641B6C03F080530193019B35
:103C900002941D4B1A6842F480421A601B6803F4B8
:103CA00080430293029B0123089309934FF48003FE
:103CB0000F93082310934FF4A873119302251295C4
:103CC000072313930E9508A8FEF766FB0F230393B3
:103CD000049505944FF4A05306934FF48053079333
:103CE000052103A8FEF76EFDFEF7C6FE074BA3FBFA
:103CF00000308009FCF7BCFF0420FCF7CFFF15B0B3
:103D000030BD00BF0038024000700040D34D62104B
:103D100008B5FCF781FBFFF7ADFFFFF745FB08BDDA
:103D200000B587B0002300930C4B1A6B42F00802D9
:103D30001A631B6B03F008030093009B4FF470435E
:103D400001930123029302230493039301A90448DE
:103D5000FDF74EFA07B05DF804FB00BF00380240E3
:103D6000000C024030B589B0002401941A4B1A6B44
:103D700042F001021A631A6B02F001020192019AE9
:103D800002941A6B42F008021A631B6B03F00803DB
:103D90000293029B01230393049402250695059543
:103DA00003A90E48FDF724FA0F2303930494059505
:103DB00003A90B48FDF71CFA234608E00021094A35
:103DC00042F823100121084A42F823100B44072B24
:103DD000F4DD09B030BD00BF0038024000000240F1
:103DE000000C0240384301201846012030B583B052
:103DF00000250195114B1A6C42F002021A641B6CEB
:103E000003F002030193019B0D4C0E4B236042F221
:103E1000CF03E36065602561A5602046FFF7F8F8F1
:103E20002046FEF757FF2A4604211D20FCF7C6FE58
:103E30001D20FCF707FF03B030BD00BF0038024073
:103E4000C85601200004004070B584B0002307E08C
:103E500000221B4941F823201A4941F8232001334D
:103E60003F2BF5DD0025184B1D80184B5D601D6054
:103E7000174C184B23604FF480336360A560012614
:103E80002661A66125626562E562A562E56002239E
:103E9000E361266365612046FCF7A0FB09230093DC
:103EA000019604230293039569462046FCF782FDA0
:103EB000324609492046FCF77DFC04B070BD00BFC6
:103EC0000C670120D4440120D4450120A8560120CC
:103ED0005C460120002001400843012070B400230B
:103EE000ACE0734A9D005119D1ED007A590041F6BA
:103EF000FE70084002EB800090ED007AF6EE006A5A
:103F000027EE267A77EE877A1944C1F30C0002EB8C
:103F1000800090ED007ADFED676A27EE267A77EE73
:103F2000877A41F6FC70284002EB800090ED007A21
:103F3000F5EE006A27EE267A77EE877AEC18C4F35E
:103F40000C0002EB800090ED007ADFED5B6A27EE5B
:103F5000267A77EE877AD800C61AC6F30C0602EBEB
:103F6000860696ED007ADFED556A27EE267A77EE23
:103F7000877A1844C0F30C0602EB860696ED007AA9
:103F8000DFED4F6A27EE267A77EE877A03EB44045B
:103F9000C4F30C0402EB840494ED007ADFED496A6B
:103FA00027EE267A77EE877A03EB8104C4F30C04BC
:103FB00002EB840494ED007ADFED436A27EE267A63
:103FC00077EE877A1C01E61AC6F30C0602EB86062A
:103FD00096ED007ADFED3D6A27EE267A77EE877A56
:103FE0001C44C4F30C0402EB840494ED007ADFED6E
:103FF000386A27EE267A77EE877A03EB4000C0F323
:104000000C0002EB800090ED007ADFED326A27EEC3
:10401000267A77EE877AC1EBC101C1F30C0102EB7E
:10402000810292ED007ADFED2C6A27EE267A2B4A88
:10403000154477EE877AC5ED007A0133B3F5005F5A
:10404000FFF64FAF002211E0910011448800244B8D
:1040500003440021596023491960204999604FF4B5
:104060000051D96041F6FF7119610132052AEBDD7B
:1040700000230CE003EB830291001B4A0A44002159
:10408000116040F25551194A42F823100133022BB6
:10409000F0DD164B4FF400621A6040F671025A6070
:1040A00040F68E129A600022114B1A6070BC704765
:1040B000484000209FAAAA3ECDCC4C3E5402123E5E
:1040C0002A8EE33D7F2EBA3DCE899D3DB588883D41
:1040D0006FF1703DA794573D240C433D08C3002069
:1040E000984301200AD7233C9044012050460120E8
:1040F000A44601202DE9F04F87B00C460192012122
:10410000B348FDF7F3F9012847D0B24A1368013BE1
:1041100013600121B048FDF7E9F9012842D00222DD
:10412000AC4B5A600221AC48FDF7E0F901283ED0C3
:104130000222A84B9A600421A748FDF7D7F901286D
:104140003AD00222A34BDA600821A348FDF7CEF94A
:10415000012836D002229F4B1A619E4B1B68022B0E
:1041600034DD03229B4B1A609C4BF7EE007AC3EDC3
:104170000A7AC3ED057AC3ED007A93ED067A37EE3D
:10418000677ADFED976AC7EE267AC3ED0D7AC3ED45
:10419000087AC3ED037A012340E08E4A13680133A5
:1041A0001360B6E78B4A536801335360BAE7894A14
:1041B000936801339360BEE7864AD3680133D360C6
:1041C000C2E7844A136901331361C6E7002BE2DAC0
:1041D0004FF0FF327F4B1A60DDE782490A68824860
:1041E000824E06FB02020A605E1E920E1203804996
:1041F000A1FB021212097F4941F826207748B2003C
:104200009719B90001444FF07E570F6000274F60A7
:10421000324491000844784AC2600133032B0CDC1D
:104220006C4A52F82320032AD7D0002AF5DA4FF03F
:10423000FF31684A42F82310EFE76E490B686F4A76
:1042400002EB8303D3ED007A6D4BC3ED007A9FED53
:104250006D7A67EE877AC3ED057A486802EB8000D5
:10426000D0ED007AC3ED0A7A9FED677A67EE877A20
:10427000C3ED0F7A896802EB8102D2ED007AC3EDBB
:10428000147A9FED627A67EE877AC3ED197A002778
:1042900001E103EB83029100504A0A44D2ED017A16
:1042A000B4EEE77AF1EE10FA70D54C4A0A44C2ED4A
:1042B000007A6BE00230052800F3AE80DFF840C1E1
:1042C0008300034499006144D1ED007A91ED017AB5
:1042D00077EE877AC1ED017AFEEEE97A4310D1F8E4
:1042E00008800A6917EE901A114008EB8102D2ED9E
:1042F000007A4FEA830909EB03018A003749114428
:1043000091ED007A67EE877A67EE277A67EE277A73
:1043100067EE277A421C4FEA820808EB020B4FEA4D
:104320008B0AD346E244DAED006A9AED016A76EE32
:10433000866ACAED016AFEEEE96ADAF808A0DC4492
:10434000DCF8102016EE905A15400AEB8502D2EDEB
:10435000006A67EE266A67EE266A67EE266A67EEEF
:10436000266A77EEA67A06AA9144F6EE006A67EE10
:10437000A67A49ED037AD1ED037A37EE277A81EDFB
:10438000007AF5EEC07AF1EE10FA82D403EB8302E4
:104390009100124A0A44D2ED037AF5EEC07AF1EEAA
:1043A00010FA87DD990019444FEA810C0B4A6244E8
:1043B00092ED007AD2ED017AB4EEE77AF1EE10FADE
:1043C0007FF778AF054B6344C3ED007A72E700BF17
:1043D0000000024038430120000C024090440120BC
:1043E00000606A48CC4401206B6319363584B30BF6
:1043F000398EE338504601203EC32EB748000020D6
:104400009843012057EC7F3FD509803F6210803FE1
:10441000CDCC4C3E9A99993E5FED027A9DED037AA0
:1044200027EE277A5FED066ADDED047A67EEA67A5D
:1044300037EE277A8EED007AF7EE006AB4EEE67A70
:10444000F1EE10FA01DDCEED006ADEED006ABFEE9E
:10445000007AF4EEC76AF1EE10FA2BD45FED136A1E
:104460009DED057A27EE267A77EE877AC6ED007AFB
:10447000B7EE007AF4EEC77AF1EE10FA01DD86EDC0
:10448000007A96ED007AFFEE007AB4EEE77AF1EE6C
:1044900010FA12D40137019B9F4211DA7E0004EB1F
:1044A000C70E013604EB860600233360CEF80030D9
:1044B000002000E78EED007AD0E7C6ED007AE9E74C
:1044C000002331E003EB830291001A4A0A44B7EE5D
:1044D000007A77EEC77AC2ED017A03EB830291008E
:1044E000144A0A44D2ED017AB7EE007AF4EEC77AA4
:1044F000F1EE10FAE6DA0AE003EB830291000D4ACE
:104500000A44B7EE007A77EE877AC2ED017A03EBC0
:1045100083029100074A0A44D2ED017AF5EEC07A8F
:10452000F1EE10FAE8D40133052BD6DD07B0BDE873
:10453000F08F00BF9843012010B5FFF76DFBFFF728
:10454000CDFCFFF7EDFBFFF70DFCFFF74FFCFFF78E
:104550007BFC4BF680325A210220FFF7A7FAF022AB
:10456000394B1A60394A00231361D360936053605A
:1045700013600021364A1160364A1360364A1360D0
:1045800080213648FFF7EEFA4EE00024324B1C60E3
:10459000102233493348FFF7ADFD23461DE0304973
:1045A00001EB830292ED007ADFED2F6A27EE267A87
:1045B000FDEEC77A17EE902A284820F813205C1CDD
:1045C00001EB8401D1ED007A67EEA67AFDEEE77A81
:1045D00017EE902A20F8142002331F2BDFDD23E092
:1045E00003F120041E4901EB830292ED007ADFED16
:1045F0001E6A27EE267AFDEEC77A17EE902A174834
:1046000020F8142003F121045A1C01EB8201D1EDA2
:10461000007A67EEA67AFDEEE77A17EE902A20F888
:10462000142002331F2BDBDD0B4B1B68012BACD09E
:10463000022BF9D10024084B1C60102208490948BC
:10464000FFF758FD2346EDE74C4601205843012073
:104650000467012008670120D04401201044012094
:10466000A84601200457012000FEFF4608B501209E
:10467000FCF76AFF08BD08B50220FCF765FF08BD1E
:1046800008B50420FCF760FF08BD08B50820FCF75A
:104690005BFF08BD08B501216B48FCF727FFC8B9CF
:1046A00001216A48FCF722FF00283DD0022167481B
:1046B000FCF71CFF00285BD004216448FCF716FFC0
:1046C000002878D008216148FCF710FF002800F08E
:1046D000968008BDFBF7C2FE5D4B1B68C01A0A2816
:1046E000DEDDFBF7BBFE5A4B18605A4B9A685A4BFB
:1046F0009A420CD0002314E003EB83029100554A48
:104700000A44564991600133052BF5DDC8E70023C3
:10471000FAE703EB830291004E4A0A444E49916046
:104720000133052BF5DDBBE7FBF798FE484B5B68D3
:10473000C01A0A2817DC4A4BF7EE007AC3ED0A7A52
:10474000C3ED057AC3ED007A93ED067A77EE677ACA
:10475000DFED446A87EEA67A83ED0D7A83ED087A61
:1047600083ED037AA2E7FBF779FE394B5860E2E765
:10477000FBF774FE364B9B68C01A64289CDDFBF780
:104780006DFE334B9860384A13683849384800FB4F
:1047900003131360DB0E1B03364AA2FB03231B0922
:1047A000354A53602E4B4FF07E525A6100229A6177
:1047B000324A1A6280E7FBF751FE254BDB68C01ACC
:1047C00064287FF77FAFFBF749FE214BD860264A6C
:1047D00013682649264800FB03131360DB0E1B03F6
:1047E000244AA2FB03231B09234A93601C4B4FF06E
:1047F0007E529A620022DA62204A5A6362E7FBF72D
:104800002DFE134B1B69C01A64287FF762AFFBF7BC
:1048100025FE0F4B1861144A13681449144800FB15
:1048200003131360DB0E1B03124AA2FB03231B09B5
:10483000114A13600A4B4FF07E521A6000225A60F0
:104840000E4ADA6045E700BF00000240000C02405B
:1048500058430120984301204840002008C300200D
:104860009044012000606A48CC4401206B631936F3
:104870003584B30B398EE338504601203EC32EB742
:1048800008B50248FEF778FA08BD00BFC8560120F7
:104890002E4BD3ED007A9FED2E7A77EE877AC3ED1B
:1048A000007A2C4B93ED007AB8EEC77AF4EEC77A13
:1048B000F1EE10FA49DD10B50022244B1A60264BA8
:1048C0001B68032B10D8DFE803F002162432234CB8
:1048D00000224FF480512046FCF71CFE01224FF4C9
:1048E00000512046FCF716FE1B4A1368013303F003
:1048F0000303136010BD194C00224FF400512046F1
:10490000FCF708FE01224FF480412046FCF702FE2E
:10491000EAE7124C00224FF480412046FCF7FAFDF2
:1049200001224FF400412046FCF7F4FDDCE70B4C7C
:1049300000224FF400412046FCF7ECFD01224FF429
:1049400080512046FCF7E6FDCEE770470467012062
:10495000CDCCCC3D4C46012008670120000C024024
:1049600008B5024B986BFCF769FB08BD5C4601205B
:10497000F0B4194803889AB203889BB203FB02F390
:104980001B13164A1360164CB4F90030154E56F836
:10499000235015490A68521B0588ADB246F82350CA
:1049A0002A440A609209114D2A60114E56F823706C
:1049B0004A68D21B408880B246F8230002444A600D
:1049C00092096A6001331BB223803F2B01DD002274
:1049D0002280F0BC704700BF084301204C460120F4
:1049E000D4450120D4440120A856012018430120B9
:1049F0000C67012008B5024B9868FCF71FFB08BD47
:104A00003846012008B5024B586BFCF717FB08BD70
:104A10007CC2002008B5024B986BFCF70FFB08BD69
:104A2000C0C200200122014B1A607047D04401200F
:104A300008B50222034B1A6040210348FFF7B2F881
:104A400008BD00BFD044012010440120FEE770479C
:104A500070B588B0064600250095284B1A6B42F0C9
:104A600002021A631A6B02F002020092009A019588
:104A70005A6C42F480725A645A6C02F48072019249
:104A8000019A02951A6B42F480021A631B6B03F4BD
:104A900080030293029B022303930323049305954F
:104AA00003A91748FCF7A4FB164C174B236065605D
:104AB000A560E5604FF4806323614FF40063636198
:104AC0004FF40053A3614FF48073E3614FF400335C
:104AD000236265620123A362E56225632046FCF739
:104AE0002FF9B463A6632A4629463820FCF766F8F6
:104AF0003820FCF7A7F808B070BD00BF00380240AE
:104B000000040240E0C1002010640240014B18681C
:104B1000704700BF48C00020034613F8012B002A4D
:104B2000FBD1181A0138704730B5141E05469BB0EA
:104B3000184605DA8B232B604FF0FF301BB030BDD9
:104B40004FF40273ADF80C3014BF04F1FF33234669
:104B5000029305934FF6FF7300910491ADF80E3068
:104B600002461E9B6946284600F074F8431CBCBFF1
:104B70008B232B60002CE1D0009B00221A70DDE714
:104B800007B5009313460A46014603480068FFF73D
:104B9000CBFF03B05DF804FB48C000202DE9F047CF
:104BA0008E689E4282460C469146984635D88A8940
:104BB00012F4906F31D0256809696F1A6569022374
:104BC00005EB450595FBF3F508F101033B449D42D8
:104BD00038BF1D46530531D5294600F08DFB0646EA
:104BE00050B90C23CAF80030A38943F04003A381D5
:104BF0004FF0FF30BDE8F0873A46216900F008FB2E
:104C0000A38923F4906343F08003A3812661656147
:104C10003E44ED1B2660A5604646464528BF4646F5
:104C200032464946206800F0FEFAA3689B1BA36049
:104C300023681E4426600020BDE8F0872A4600F065
:104C4000B9FB06460028E1D12169504600F006FB79
:104C5000C7E700002DE9F04F9DB0804603938B8994
:104C60001C060D4616460FD50B696BB9402100F0A6
:104C700043FB2860286128B90C23C8F800304FF0A6
:104C8000FF30C5E040236B610023099320238DF89A
:104C9000293030238DF82A304FF0010B37463C463F
:104CA00014F8013B002B3CD1B7EB060A0BD053465E
:104CB000324629464046FFF771FF013000F0A380DD
:104CC000099B534409933B78002B00F09C80002300
:104CD0004FF0FF3204930793059206938DF85330FB
:104CE0001A9305222178504800F042FA671C049B71
:104CF000D8B9D90644BF20228DF853201A0744BFE3
:104D00002B228DF8532022782A2A16D0079A0021C8
:104D10000A20274601343B78303B092B51D9C9B1D1
:104D200011E0252BC0D02746B9E73F4A801A0BFA7D
:104D300000F0184304903C46D3E7039A111D126813
:104D40000391002A01DB079204E0524243F0020380
:104D5000079204933B782E2B0ED17B782A2B07F1F8
:104D6000010132D1039B1A1D1B680392002BB8BFAF
:104D70004FF0FF33023705932C4C3978032220463D
:104D800000F0F6F938B14023001B03FA00F0049B51
:104D9000034304930137397825488DF828100622FB
:104DA0007E1C00F0E5F9002835D0224BFBB9039BAF
:104DB000073323F0070308330393099B4B440993FC
:104DC0006CE700FB02320121A3E70023059318469C
:104DD0000A240F4601313A78303A092A03D9002BC8
:104DE000CAD00590C8E704FB00200123F1E703AB1C
:104DF00000932A46104B04A94046AFF30080B0F15F
:104E0000FF3F8146D9D1AB895B063FF538AF0998A2
:104E10001DB0BDE8F08F03AB00932A46064B04A9F2
:104E2000404600F081F8EAE7045800080A580008F4
:104E30000E580008000000009D4B00082DE9F047C7
:104E400091461F468A680B69DDF820809342B8BFFF
:104E50001346C9F8003091F8432006460C4612B1BB
:104E60000133C9F800302368990642BFD9F80030F1
:104E70000233C9F80030256815F0060507D104F1A2
:104E8000190AE368D9F800209B1A9D4229DB94F89F
:104E900043302268003318BF012392062ED404F158
:104EA000430239463046C047013021D02368E568C7
:104EB000D9F8002003F00603042B08BFAD1AA3683D
:104EC00022690CBF25EAE57500259342C4BF9B1AF1
:104ED000ED184FF000091A344D451BD10020BDE8F4
:104EE000F0870123524639463046C047013003D18E
:104EF0004FF0FF30BDE8F0870135C2E7E1185A1CDA
:104F0000302081F84300224494F8451082F8431081
:104F10000233C4E70123224639463046C0470130F8
:104F2000E6D009F10109D7E72DE9F04317460A7EDB
:104F300085B06E2A984606460C460C9B01F1430E3E
:104F400000F0BC801AD8632A2ED00AD8002A00F0BC
:104F5000C880582A00F08A8004F1420584F8422073
:104F60002AE0642A01D0692AF6D121681A6811F072
:104F7000800F23D0111D1960136827E0732A00F0F9
:104F8000B48008D86F2A2AD0702AE5D10A6842F086
:104F900020020A6003E0752A21D0782ADCD1782229
:104FA00084F845206E4964E01A6801F14205111D3C
:104FB0001960136884F842300123A3E011F0400F18
:104FC00002F104011960D7D0B2F90030002B03DAE6
:104FD0002D225B4284F8432062490A2217E02068B0
:104FE000196810F0800F03D0081D18600B6806E0E8
:104FF00010F0400F01F104001860F7D00B885949F8
:105000006F2A14BF0A220822002084F84300656832
:10501000A560002DC0F29C80206820F00400206074
:10502000002B3FD1002D40F095807546082A0BD10A
:105030002368DA0708D5236962689A42DEBF302305
:1050400005F8013C05F1FF35AEEB05032361CDF812
:1050500000803B4603AA21463046FFF7EFFE0130B1
:1050600055D14FF0FF3005B0BDE8F08381F8452001
:105070003C492268186812F0800F00F104051D6099
:1050800001D0036802E05506FBD50388D00744BF72
:1050900042F0200222601BB9226822F02002226026
:1050A0001022B1E77546B3FBF2F002FB1033CB5C84
:1050B00005F8013D03460028F5D1B7E708681A68EE
:1050C000496910F0800F04D0101D18601368196032
:1050D00007E010F0400F02F1040018601368F6D0EA
:1050E0001980002323617546B1E71A68111D196004
:1050F000156862680021284600F03AF808B1401BA4
:10510000606063682361002384F843309FE723696C
:105110002A4639463046C0470130A2D023689B0753
:1051200007D5002504F11909E368039A9B1A9D42EB
:1051300005DBE068039B9842B8BF184693E701235C
:105140004A4639463046C04701308AD00135EBE740
:10515000002BA7D10B7884F8423004F1420565E7B3
:105160002658000815580008000000000000000044
:1051700001F0FF01102A2BDB10F0070F08D010F808
:10518000013B013A8B422DD010F0070F42B3F6D10C
:10519000F0B441EA012141EA014122F007047FF025
:1051A00000070023F0E80256083C85EA010586EA7C
:1051B000010685FA47F5A3FA87F586FA47F6A5FAB8
:1051C00087F68EB9EED1F0BC01F0FF0102F00702C4
:1051D00032B110F8013B013A83EA010313B1F8D16F
:1051E0000020704701387047002D06BF3546033850
:1051F000073815F0010F07D1013015F4807F02BF89
:10520000013015F4C03F0130F0BC0138704700BFD9
:1052100010B5431E0A44914200D110BD11F8014B54
:1052200003F8014FF7E7884210B501EB020303D8FA
:10523000421E99420CD110BD9842F9D28118D21A5F
:10524000D34200D110BD13F8014D01F8014DF7E72D
:1052500011F8014B02F8014FEBE7000038B50546A5
:10526000002945D051F8043C0C1F002BB8BFE418AE
:1052700000F0D6F81F4A1368104633B96360146013
:105280002846BDE8384000F0CCB8A3420CD92168CC
:105290006218934204BF1A685B68636004BF5218C7
:1052A00022600460ECE713465A680AB1A242FAD9B8
:1052B00019685818A0420BD120680144581882423E
:1052C0001960DDD1106852685A6001441960D7E74F
:1052D00002D90C232B60D3E7206821188A4204BF2F
:1052E00011685268626004BF091821605C60C7E7FA
:1052F00038BD00BF38C2002070B5CD1C25F00305B5
:1053000008350C2D38BF0C25002D064601DBA942BF
:1053100003D90C233360002070BD00F081F8234ACC
:105320001468214691B9224C23681BB9304600F01D
:1053300067F820602946304600F062F8431C26D109
:105340000C233360304600F06CF8E4E70B685B1B1D
:105350001AD40B2B0FD90B60CD50CC18304600F06F
:1053600060F804F10B00231D20F00700C31A1BD0C6
:105370005A42E25070BD8C420DBF63684B68636057
:10538000136018BF0C46E9E70C464968CAE7C41C1D
:1053900024F00304A04205D0211A304600F030F872
:1053A0000130CDD02560D9E770BD00BF38C20020E4
:1053B0003CC20020F8B5074614460E4621B91146F6
:1053C000BDE8F840FFF798BF22B9FFF747FF254631
:1053D0002846F8BD00F026F884420FD92146384609
:1053E000FFF78AFF05460028F2D031462246FFF734
:1053F0000FFF31463846FFF731FFE9E73546E7E76B
:1054000038B5064C0023054608462360FDF782FEAA
:10541000431C02D1236803B12B6038BD44C2002075
:105420007047704751F8040C0028A0F10400BCBF7D
:105430000B58C018704700002E2E2F7379737465B7
:105440006D2F7372632F73746D333266342D686100
:105450006C2F73746D3332663478785F68616C5F7B
:105460006164632E630000002E2E2F7379737465C0
:105470006D2F7372632F73746D333266342D6861D0
:105480006C2F73746D3332663478785F68616C5F4B
:10549000636F727465782E63000000002E2E2F73E8
:1054A000797374656D2F7372632F73746D33326605
:1054B000342D68616C2F73746D3332663478785F85
:1054C00068616C5F646D612E630000000006101659
:1054D000000610162E2E2F73797374656D2F73725C
:1054E000632F73746D333266342D68616C2F73745F
:1054F0006D3332663478785F68616C5F6770696FAE
:105500002E6300002E2E2F73797374656D2F7372C6
:10551000632F73746D333266342D68616C2F73742E
:105520006D3332663478785F68616C5F6932632E00
:10553000630000002E2E2F73797374656D2F7372C4
:10554000632F73746D333266342D68616C2F7374FE
:105550006D3332663478785F68616C5F6932735F8F
:1055600065782E63000000000000000001020304C3
:1055700001020304060708092E2E2F737973746540
:105580006D2F7372632F73746D333266342D6861BF
:105590006C2F73746D3332663478785F68616C5F3A
:1055A0007263632E630000002E2E2F73797374656F
:1055B0006D2F7372632F73746D333266342D68618F
:1055C0006C2F73746D3332663478785F68616C5F0A
:1055D0007263635F65782E63000000002E2E2F73C8
:1055E000797374656D2F7372632F73746D333266C4
:1055F000342D68616C2F73746D3332663478785F44
:1056000068616C5F74696D2E6300000061626F7287
:105610007428292C2065786974696E672E2E2E00F7
:105620006173736572745F706172616D28292066A1
:1056300061696C65643A2066696C65202225732275
:105640002C206C696E652025640A00005374616328
:105650006B206672616D653A0A00000020523020AE
:105660003D2020253038580A00000000205231200B
:105670003D2020253038580A0000000020523220FA
:105680003D2020253038580A0000000020523320E9
:105690003D2020253038580A0000000020523132C9
:1056A000203D20253038580A00000000204C5220B0
:1056B0003D2020253038580A0000000020504320AB
:1056C0003D2020253038580A000000002050535259
:1056D000203D20253038580A000000004653522F44
:1056E0004641523A0A0000002043465352203D20D2
:1056F00020253038580A00002048465352203D20CB
:1057000020253038580A00002044465352203D20BE
:1057100020253038580A00002041465352203D20B1
:1057200020253038580A0000204D4D464152203D7A
:1057300020253038580A00002042464152203D20A2
:1057400020253038580A00004D6973630A000000B4
:10575000204C522F4558435F52455455524E3D20E0
:10576000253038580A0000005B4861726446617554
:105770006C745D0A000000005B4275734661756CD5
:10578000745D0A005B55736167654661756C745D95
:105790000A000000000000000000000001020304F5
:1057A00006070809401F0000112B0000803E000082
:1057B00022560000007D000044AC000080BB0000C9
:1057C0000077010000010000AD010000D5000000DD
:1057D000AD010000AA0100000F010000020100005D
:1057E0005801000005000000040000000400000053
:1057F0000400000004000000060000000300000098
:1058000001000000232D302B2000686C4C006566E1
:105810006745464700303132333435363738394101
:105820004243444546003031323334353637383917
:07583000616263646566001C
:1058380078563412B8C00020000000000024F4009C
:1058480001FFFFFFC13400085D3700086537000815
:10585800153600085536000871360008B9360008B4
:10586800493400085D340008B9350008ED360008F1
:105878004D34000800100000629A323AD7C8323A14
:1058880059F7323AE725333A8054333A2683333A84
:10589800D9B1333A97E0333A610F343A383E343A63
:1058A8001B6D343A0A9C343A05CB343A0CFA343A34
:1058B8002029353A4058353A6C87353AA4B6353AF6
:1058C800E9E5353A3A15363A9744363A0174363AA4
:1058D80077A3363AF9D2363A8802373A2332373A3A
:1058E800CA61373A7E91373A3EC1373A0BF1373AB7
:1058F800E420383ACA50383ABB80383ABAB0383A15
:10590800C5E0383ADC10393A0041393A3171393A50
:105918006EA1393AB7D1393A0D023A3A70323A3A69
:10592800DF623A3A5B933A3AE4C33A3A79F43A3A5C
:105938001A253B3AC9553B3A84863B3A4CB73B3A21
:1059480020E83B3A01193C3AEF493C3AEA7A3C3ABA
:10595800F1AB3C3A05DD3C3A260E3D3A533F3D3A21
:105968008E703D3AD5A13D3A29D33D3A8A043E3A54
:10597800F8353E3A72673E3AFA983E3A8ECA3E3A4F
:105988002FFC3E3ADD2D3F3A985F3F3A60913F3A0F
:1059980035C33F3A17F53F3A0627403A0259403A8D
:1059A8000B8B403A20BD403A43EF403A7321413ACD
:1059B800B053413AFA85413A51B8413AB6EA413AC8
:1059C800271D423AA64F423A3182423ACAB4423A75
:1059D80070E7423A231A433AE34C433AB17F433AD9
:1059E8008BB2433A73E5433A6818443A6B4B443AEE
:1059F8007A7E443A97B1443AC2E4443AF917453AB0
:105A08003E4B453A907E453AF0B1453A5DE5453A18
:105A1800D718463A5F4C463AF47F463A97B3463A27
:105A280047E7463A041B473ACF4E473AA782473AD8
:105A38008DB6473A80EA473A811E483A9052483A2A
:105A4800AC86483AD5BA483A0CEF483A5123493A15
:105A5800A357493A038C493A70C0493AEBF4493A9A
:105A680074294A3A0A5E4A3AAF924A3A60C74A3AB1
:105A780020FC4A3AED304B3AC8654B3AB19A4B3A5A
:105A8800A7CF4B3AAB044C3ABD394C3ADD6E4C3A91
:105A98000BA44C3A46D94C3A900E4D3AE7434D3A4E
:105AA8004C794D3ABFAE4D3A40E44D3ACE194E3A94
:105AB8006B4F4E3A16854E3ACEBA4E3A95F04E3A5C
:105AC8006A264F3A4C5C4F3A3D924F3A3BC84F3AA0
